:020000040800F2
:10000000002800209D1E0008951A00089D1A00086F
:10001000A51A0008AD1A0008B51A00080000000073
:10002000000000000000000000000000BD1A0008F1
:10003000C91A000800000000D51A0008E11A0008DB
:10004000E51E0008E51E0008E51E0008E51E000884
:10005000E51E0008E51E0008E51E0008E51E000874
:10006000E51E0008E51E0008E51E0008E51E000864
:10007000E51E0008E51E0008E51E0008E51E000854
:10008000E51E0008E51E0008E51E0008E51E000844
:10009000E51E0008E51E0008E51E0008E51E000834
:1000A000E51E0008E51E0008E51E0008E51E000824
:1000B000ED1A0008E51E000800000000E51E00081B
:1000C000E51E00080000000000000000E51E00081A
:1000D00000000000E51E0008E51E0008000000000A
:1000E000E51E0008E51E0008E51E000800000000EF
:1000F0000000000000000000000000000000000000
:0C01000000000000000000005FF808F1A3
:10010C0010B5054C237833B9044B13B10448AFF345
:10011C0000800123237010BDA0000020000000000F
:10012C005837000808B5034B1BB103490348AFF31C
:10013C00008008BD00000000A40000205837000813
:10014C0080B584B000AF464B1B68032B79DD444B64
:10015C001B68062B75DC424B1B68042B09D1032052
:10016C0001F024FD042001F011FD052001F00EFD2D
:10017C001AE03B4B1B68052B09D1042001F016FD3E
:10018C00032001F003FD052001F000FD0CE0344BD1
:10019C001B68062B08D1052001F008FD032001F097
:1001AC00F5FC042001F0F2FC032001F0DFFC034617
:1001BC00002B12D008212B4802F0ABF94021294822
:1001CC0002F0A7F9284B1B684FF4FA7202FB03F3F9
:1001DC00FB60F968032001F0F9FC042001F0C6FC77
:1001EC000346002B12D010211E4802F092F98021F8
:1001FC001C4802F08EF91D4B1B684FF4FA7202FB7F
:10020C0003F3BB60B968042001F0E0FC052001F0A9
:10021C00ADFC0346002B1ED02021124802F079F9C8
:10022C004FF480710F4802F074F9114B1B684FF4B6
:10023C00FA7202FB03F37B607968052001F0C6FCBF
:10024C0009E0032001F0A2FC042001F09FFC052032
:10025C0001F09CFC00BF00BF1037BD4680BD00BF45
:10026C00C8000020000C0140000000200400002009
:10027C000800002080B500AF164B05221A60164B03
:10028C0003221A60012000F0E5FB022000F0E2FBE3
:10029C00002000F011FC032000F00EFC0D4B1B683D
:1002AC00184600F0FBFC0C4B1B68184600F086FE51
:1002BC00032001F06BFC042001F068FC052001F028
:1002CC0065FC064B00221A60054B00221A6000BF29
:1002DC0080BD00BF4000002044000020B40100207D
:1002EC00C800002080B400AF00BFBD4680BC704782
:1002FC0080B400AF00BFBD4680BC704780B400AF77
:10030C0000BFBD4680BC704780B500AF01F0B0FCAB
:10031C0000BF80BD80B500AF01F0AAFC00BF80BD5E
:10032C0080B500AF01F0A4FC00BF80BD80B500AF6C
:10033C0001F0C4FC01F02AFD0346002B0BD0074B47
:10034C001B68184600F0AAFC054B1B68184600F009
:10035C0035FE01F025FD00BF80BD00BF4000002030
:10036C004400002080B500AF01F0CEFC01F00EFD82
:10037C000346002B0BD0074B1B68184600F08EFC75
:10038C00054B1B68184600F019FE01F009FD00BF73
:10039C0080BD00BF400000204400002080B500AFAD
:1003AC0001F0C4FC01F0F2FC0346002B0BD0074B10
:1003BC001B68184600F072FC054B1B68184600F0D1
:1003CC00FDFD01F0EDFC00BF80BD00BF4000002032
:1003DC004400002080B500AF01F0C2FC01F0D6FC57
:1003EC000346002B0BD0074B1B68184600F056FC3D
:1003FC00054B1B68184600F0E1FD01F0D1FC00BF75
:10040C0080BD00BF400000204400002080B500AF3C
:10041C00294B1B68294A82FB03129210DB17D31A53
:10042C001946002000F004FB234B1A68234B83FB76
:10043C0002139910D317C91A0B469B000B445B008F
:10044C00D11A012000F0F4FA1D4B1B68023B1B4A29
:10045C0082FB03129210DB17D31A1946022000F00C
:10046C00E7FA174B1B689A1E144B83FB0213991067
:10047C00D317C91A0B469B000B445B00D11A0320FF
:10048C0000F0D6FA0F4B5B78012B0BD10A4B1B6893
:10049C000133094A1360084B1B68632B02DD064BC2
:1004AC0001221A60074B9B78012B03D1024B1B686E
:1004BC00054A136000BF80BD0C00002067666666AD
:1004CC00C8000020CC0000200000002080B500AF48
:1004DC00294B1B68294A82FB03129210DB17D31A93
:1004EC001946002000F0A4FA234B1A68234B83FB17
:1004FC0002139910D317C91A0B469B000B445B00CF
:10050C00D11A012000F094FA1D4B1B68023B1B4AC8
:10051C0082FB03129210DB17D31A1946022000F04B
:10052C0087FA174B1B689A1E144B83FB0213991006
:10053C00D317C91A0B469B000B445B00D11A03203E
:10054C0000F076FA0F4B5B78012B0BD10A4B1B6832
:10055C000133094A1360084B1B68632B02DD064B01
:10056C0001221A60074B9B78012B03D1024B1B68AD
:10057C00054A136000BF80BD1000002067666666E8
:10058C00C8000020CC0000200400002080B500AF83
:10059C00294B1B68294A82FB03129210DB17D31AD2
:1005AC001946002000F044FA234B1A68234B83FBB6
:1005BC0002139910D317C91A0B469B000B445B000E
:1005CC00D11A012000F034FA1D4B1B68023B1B4A68
:1005DC0082FB03129210DB17D31A1946022000F08B
:1005EC0027FA174B1B689A1E144B83FB02139910A6
:1005FC00D317C91A0B469B000B445B00D11A03207E
:10060C0000F016FA0F4B5B78012B0BD10A4B1B68D1
:10061C000133094A1360084B1B68632B02DD064B40
:10062C0001221A60074B9B78012B03D1024B1B68EC
:10063C00054A136000BF80BD140000206766666623
:10064C00C8000020CC0000200800002080B500AFBE
:10065C00384B1B68032B61D801A252F823F000BF62
:10066C007D060008AB060008D5060008FF0600084A
:10067C00FFF75CFE304B1B68012B04D1FFF732FEF9
:10068C002C4B01221A60002000F0F6F80346002BD8
:10069C0046D0FFF739FE274B04221A6040E0FFF7E3
:1006AC0061FE254B1B68022B04D1FFF721FE214B69
:1006BC0002221A60214B1B78012B33D1FFF724FE49
:1006CC001C4B04221A602DE0FFF768FE1A4B1B68C6
:1006DC00032B04D1FFF712FE164B03221A60174BA3
:1006EC001B78012B20D1FFF70FFE124B04221A604E
:1006FC001AE0FFF76FFE104B1B68002B04D1FFF7BD
:10070C00B9FD0C4B00221A600C4B1B78012B0DD140
:10071C00FFF7FAFD074B04221A6007E000BF06E062
:10072C0000BF04E000BF02E000BF00E000BF00BF5C
:10073C0080BD00BFC8000020B4010020CC00002008
:10074C0080B500AF1B4B1B68062B1ED0062B28DC7C
:10075C00042B02D0052B0CD023E0FFF757FE164BD1
:10076C001B78012B1FD1FFF7D5FD124B05221A6008
:10077C0019E0FFF7ABFE104B1B78012B15D1FFF7DF
:10078C00CFFD0C4B06221A600FE0FFF7FFFE0A4B61
:10079C001B78012B0BD1FFF76DFD064B00221A6065
:1007AC0005E000BF04E000BF02E000BF00E000BFB6
:1007BC0000BF80BDC8000020CC00002080B582B0F6
:1007CC0000AF00237B604CE02A4A7B6813441B7803
:1007DC00022B30D0022B41DC002B02D0012B0ED08F
:1007EC003CE07B68DBB2184600F046F80346002B71
:1007FC002FD0204A7B68134401221A7029E07B68B1
:10080C00DBB2184600F038F80346002B05D1194A24
:10081C007B68134400221A701DE07B68DBB218461B
:10082C0000F048F80346002B15D0124A7B6813449D
:10083C0002221A700FE07B68DBB2184600F01CF83D
:10084C000346002B09D10B4A7B68134400221A7013
:10085C0003E000BF02E000BF00E000BF7B68013393
:10086C007B607B68022BAFDD00BF00BF0837BD4645
:10087C0080BD00BFCC00002080B483B000AF034625
:10088C00FB71FB79022B01D900230BE0FB79084AA1
:10089C00D35C002B05D0FB79054A0021D1540123F0
:1008AC0000E0002318460C37BD4680BC704700BFE3
:1008BC00D000002080B483B000AF0346FB71FB79FD
:1008CC00022B01D9FF230BE0FB79084AD35C002BE8
:1008DC0005D0FB79054A0021D154012300E0002307
:1008EC0018460C37BD4680BC704700BFD4000020B2
:1008FC0080B582B000AF00237B6082E0454A7B6804
:10090C0013441978444A7B6813440A461A70434AC4
:10091C007B68134419783F4A7B6813440A461A7063
:10092C007B68002B0BD101213D4801F0C3FD034630
:10093C0019463A4A7B6813440A461A701CE07B68D5
:10094C00012B0BD10221364801F0B4FD03461946A8
:10095C00324A7B6813440A461A700DE07B68022BFE
:10096C000AD104212E4801F0A5FD034619462B4A55
:10097C007B6813440A461A70284A7B6813441A7819
:10098C0024497B680B441B789A4237D1214A7B68F7
:10099C0013441A7820497B680B441B789A422DD15A
:1009AC001E4A7B6813441A781E497B680B441B78DB
:1009BC009A4219D0194A7B6813441978194A7B68F2
:1009CC0013440A461A70174A7B6813441B78002B91
:1009DC0014D1154A7B68642122F81310134A7B68E2
:1009EC00134401221A7009E00F4A7B6832F8133065
:1009FC00013B99B20C4A7B6822F813107B680133D7
:100A0C007B607B68022B7FF779AF00BF00BF083794
:100A1C00BD4680BD20000020240000201C000020CA
:100A2C00000C014018000020D8000020D00000204D
:100A3C0080B483B000AF7860396005497B683A6850
:100A4C0041F8232000BF0C37BD4680BC704700BF67
:100A5C002800002080B582B000AF78607B68002B46
:100A6C0006D101224FF48051124801F03AFD1CE0EE
:100A7C007B68012B06D101224FF400510D4801F087
:100A8C0030FD12E07B68022B06D101224FF480412D
:100A9C00084801F026FD08E07B68032B05D10122F4
:100AAC004FF40041034801F01CFD00BF0837BD4660
:100ABC0080BD00BF000C014080B582B000AF7860F3
:100ACC007B68002B06D100224FF48051124801F0B4
:100ADC0008FD1CE07B68012B06D100224FF400516D
:100AEC000D4801F0FEFC12E07B68022B06D10022BF
:100AFC004FF48041084801F0F4FC08E07B68032BBC
:100B0C0005D100224FF40041034801F0EAFC00BF7C
:100B1C000837BD4680BD00BF000C014080B582B0D7
:100B2C0000AF78607B68002B18D100224FF4805105
:100B3C00364801F0D6FC01224FF40051334801F045
:100B4C00D0FC01224FF48041304801F0CAFC012254
:100B5C004FF400412D4801F0C4FC52E07B68012B9E
:100B6C0018D101224FF48051284801F0BAFC002220
:100B7C004FF40051254801F0B4FC01224FF48041A0
:100B8C00224801F0AEFC01224FF400411F4801F055
:100B9C00A8FC36E07B68022B18D101224FF480515F
:100BAC001A4801F09EFC01224FF40051174801F045
:100BBC0098FC00224FF48041144801F092FC012271
:100BCC004FF40041114801F08CFC1AE07B68032BB8
:100BDC0017D101224FF480510C4801F082FC012204
:100BEC004FF40051094801F07CFC01224FF4804184
:100BFC00064801F076FC00224FF40041034801F056
:100C0C0070FC00BF0837BD4680BD00BF000C014022
:100C1C0080B582B000AF78607B68032B36D801A218
:100C2C0052F823F0410C0008570C00086D0C00081A
:100C3C00830C00087868FFF771FF174A7B6852F83D
:100C4C002330184600F02AF821E07868FFF766FF99
:100C5C00114A7B6852F82330184600F01FF816E052
:100C6C007868FFF75BFF0C4A7B6852F82330184614
:100C7C0000F0A4F90BE07868FFF750FF064A7B6898
:100C8C0052F82330184600F099F900E000BF00BF7D
:100C9C000837BD4680BD00BF2800002080B582B05B
:100CAC0000AF78607B68002B23D100220121C24861
:100CBC0001F017FC00220221BF4801F012FC0022B7
:100CCC000421BD4801F00DFC00220821BA4801F0B6
:100CDC0008FC00221021B84801F003FC002220215E
:100CEC00B54801F0FEFB01224021B34801F0F9FBAD
:100CFC005DE17B68012B23D101220121AE4801F07B
:100D0C00F0FB00220221AC4801F0EBFB0022042195
:100D1C00A94801F0E6FB01220821A74801F0E1FBFC
:100D2C0001221021A44801F0DCFB01222021A24861
:100D3C0001F0D7FB012240219F4801F0D2FB36E1A4
:100D4C007B68022B23D1002201219B4801F0C9FBB7
:100D5C0000220221984801F0C4FB0122042196488C
:100D6C0001F0BFFB00220821934801F0BAFB0022DE
:100D7C001021914801F0B5FB012220218E4801F091
:100D8C00B0FB002240218C4801F0ABFB0FE17B68EB
:100D9C00032B23D100220121874801F0A2FB002262
:100DAC000221854801F09DFB00220421824801F0BC
:100DBC0098FB00220821804801F093FB01221021AE
:100DCC007D4801F08EFB012220217B4801F089FB3C
:100DDC0000224021784801F084FBE8E07B68042B7A
:100DEC0023D101220121744801F07BFB0022022156
:100DFC00714801F076FB002204216F4801F071FB71
:100E0C00012208216C4801F06CFB012210216A4878
:100E1C0001F067FB00222021674801F062FB0022F1
:100E2C004021654801F05DFBC1E07B68052B23D1B7
:100E3C0000220121604801F054FB012202215E488E
:100E4C0001F04FFB002204215B4801F04AFB002219
:100E5C000821594801F045FB01221021564801F0A8
:100E6C0040FB00222021544801F03BFB0022402192
:100E7C00514801F036FB9AE07B68062B23D1002207
:100E8C0001214D4801F02DFB012202214A4801F0BD
:100E9C0028FB00220421484801F023FB00220821F2
:100EAC00454801F01EFB00221021434801F019FBBC
:100EBC0000222021404801F014FB002240213E4832
:100ECC0001F00FFB73E07B68072B23D1002201217B
:100EDC00394801F006FB00220221374801F001FBE2
:100EEC0000220421344801F0FCFA01220821324886
:100EFC0001F0F7FA012210212F4801F0F2FA012239
:100F0C0020212D4801F0EDFA012240212A4801F060
:100F1C00E8FA4CE07B68082B23D1002201212648FB
:100F2C0001F0DFFA00220221234801F0DAFA002254
:100F3C000421214801F0D5FA002208211E4801F0B5
:100F4C00D0FA002210211C4801F0CBFA00222021FB
:100F5C00194801F0C6FA00224021174801F0C1FAE5
:100F6C0025E07B68092B22D100220121124801F0D7
:100F7C00B8FA00220221104801F0B3FA0022042131
:100F8C000D4801F0AEFA002208210B4801F0A9FA35
:100F9C0001221021084801F0A4FA00222021064861
:100FAC0001F09FFA00224021034801F09AFA00BF99
:100FBC000837BD4680BD00BF0008014080B582B037
:100FCC0000AF78607B68002B2AD100224FF480712F
:100FDC00CB4801F086FA00224FF40071C84801F0AA
:100FEC0080FA00224FF48061C54801F07AFA0022A1
:100FFC004FF40061C24801F074FA00224FF48051A2
:10100C00BF4801F06EFA00224FF40051BC4801F0C9
:10101C0068FA01224FF48041B94801F062FA9EE16E
:10102C007B68012B2AD101224FF48071B44801F066
:10103C0058FA00224FF40071B14801F052FA002224
:10104C004FF48061AE4801F04CFA01224FF400617C
:10105C00AB4801F046FA01224FF48051A84801F048
:10106C0040FA01224FF40051A54801F03AFA01224E
:10107C004FF48041A24801F034FA70E17B68022BF6
:10108C002AD100224FF480719D4801F02AFA0022E7
:10109C004FF400719A4801F024FA01224FF4806158
:1010AC00974801F01EFA00224FF40061944801F0B9
:1010BC0018FA00224FF48051914801F012FA0122E3
:1010CC004FF400518E4801F00CFA00224FF480418D
:1010DC008B4801F006FA42E17B68032B2AD10022EF
:1010EC004FF48071864801F0FCF900224FF4007136
:1010FC00834801F0F6F900224FF48061804801F03A
:10110C00F0F900224FF400617D4801F0EAF9012268
:10111C004FF480517A4801F0E4F901224FF4005168
:10112C00774801F0DEF900224FF48041744801F059
:10113C00D8F914E17B68042B2AD101224FF4807179
:10114C006F4801F0CEF900224FF400716C4801F0A9
:10115C00C8F900224FF48061694801F0C2F90122FC
:10116C004FF40061664801F0BCF901224FF4805144
:10117C00634801F0B6F900224FF40051604801F0C9
:10118C00B0F900224FF480415D4801F0AAF9E6E085
:10119C007B68052B2AD100224FF48071584801F04E
:1011AC00A0F901224FF40071554801F09AF9002280
:1011BC004FF48061524801F094F900224FF4006121
:1011CC004F4801F08EF901224FF480514C4801F048
:1011DC0088F900224FF40051494801F082F90022AD
:1011EC004FF48041464801F07CF9B8E07B68062B4F
:1011FC002AD100224FF48071414801F072F901228A
:10120C004FF400713E4801F06CF900224FF48061FC
:10121C003B4801F066F900224FF40061384801F0B8
:10122C0060F900224FF48051354801F05AF9002240
:10123C004FF40051324801F054F900224FF4804130
:10124C002F4801F04EF98AE07B68072B2AD1002247
:10125C004FF480712A4801F044F900224FF40071D8
:10126C00274801F03EF900224FF48061244801F038
:10127C0038F901224FF40061214801F032F90122C2
:10128C004FF480511E4801F02CF901224FF400510B
:10129C001B4801F026F901224FF48041184801F057
:1012AC0020F95CE07B68082B2CD100224FF4807174
:1012BC00134801F016F900224FF40071104801F0A8
:1012CC0010F900224FF480610D4801F00AF9002258
:1012DC004FF400610A4801F004F900224FF48051E8
:1012EC00074801F0FEF800224FF40051044801F0C9
:1012FC00F8F800224FF48041014801F0F2F82EE09A
:10130C00000801407B68092B29D100224FF4807121
:10131C00154801F0E6F800224FF40071124801F074
:10132C00E0F800224FF480610F4801F0DAF8002257
:10133C004FF400610C4801F0D4F801224FF48051B5
:10134C00094801F0CEF800224FF40051064801F094
:10135C00C8F800224FF48041034801F0C2F800BFE6
:10136C000837BD4680BD00BF0008014080B500AF06
:10137C000D4B1B68032B15DD0B4B1B68062B11DC6F
:10138C000A4B1B681846FFF743FC084B1B680133DC
:10139C00064A1360054B1B680422934202DB034B85
:1013AC0000221A6000BF80BDC8000020E0000020B1
:1013BC0080B582B000AF7860FFF79AFA00F024FC99
:1013CC0000F054FA00BF0837BD4680BD80B500AFB1
:1013DC0000F084FD00F034F800F0BAF800F06CF87E
:1013EC00FEF748FF00F03CF90023FA2200211048D8
:1013FC0000F050F900234FF47A7200210D4800F0F0
:10140C0049F900234FF47A724FF47A710A4800F0CC
:10141C0041F90A4801F0C4FCFFF7D0F9FFF716F9BF
:10142C00FFF78EF9FEF78CFE00F046FA00BFF3E7EB
:10143C0079130008C51D0008DD1D0008E40000201C
:10144C0080B590B000AF07F1180328220021184690
:10145C0002F0F0F83B1D00221A605A609A60DA60C4
:10146C001A610223BB610123BB621023FB620023C0
:10147C007B6307F11803184601F064F80346002B50
:10148C0001D000F0C7F80F237B600023BB60002362
:10149C00FB6000233B6100237B613B1D0021184650
:1014AC0001F0D2FA0346002B01D000F0B3F800BFD4
:1014BC004037BD4680BD000080B586B000AF07F157
:1014CC00080300221A605A609A60DA603B460022D8
:1014DC001A605A601D4B4FF080421A601B4B41F64C
:1014EC003F725A60194B00229A60184B0922DA603D
:1014FC00164B00221A61154B00229A61134801F019
:10150C00FFFB0346002B01D000F084F84FF480530E
:10151C00BB6007F1080319460C4801F07DFD03463A
:10152C00002B01D000F076F800233B6000237B6099
:10153C003B461946054801F055FF0346002B01D0E8
:10154C0000F068F800BF1837BD4680BDE4000020ED
:10155C0080B586B000AF07F1080300221A605A600C
:10156C009A60DA60284B9B69274A43F00403936125
:10157C00254B9B6903F004037B607B68224B9B69C2
:10158C00214A43F0080393611F4B9B6903F0080346
:10159C003B603B68002247F67F711C4800F0A1FFBE
:1015AC0000224FF2F8111A4800F09BFF47F67F73A8
:1015BC00BB600123FB6000233B6102237B6107F1CD
:1015CC0008031946114800F0F9FD0723BB600023FE
:1015DC00FB6000233B6107F1080319460C4800F03F
:1015EC00EDFD4FF2F813BB600123FB6000233B6160
:1015FC0002237B6107F108031946054800F0DEFD64
:10160C0000BF1837BD4680BD0010024000080140E5
:10161C00000C014080B400AF72B600BF00BFFDE704
:10162C0080B586B000AFF860B9607A603B6014207A
:10163C0001F042FF03467B617B69FA681A607B69A3
:10164C00BA685A607B697A689A607B693A68DA6032
:10165C007B6900221A617B6918461837BD4680BD2C
:10166C0080B400AF074B00221A60074B00221A60AF
:10167C00064B00221A70064B00221A6000BFBD46B2
:10168C0080BC70473401002030010020BC000020D9
:10169C002C01002080B588B000AFF860B9607A608A
:1016AC003B60374B1B68FB610023BB61354B1B68F0
:1016BC001A46BB68B3FBF2F1324B1B681A467B68C7
:1016CC00B3FBF2F23B68F868FFF7AAFF7861FB699D
:1016DC00002B1AD12A4A7B6913602B4B1B680133F0
:1016EC00294A136049E07B695A68FB695B689A4236
:1016FC000FD37B695A68FB695B68D21A7B695A60A5
:10170C00FB69BB61FB691B69FB61FB69002BEAD1BF
:10171C0000E000BFBB69002B13D1194B1A687B6921
:10172C001A61174A7B691360154B1B681B69596852
:10173C00134B1B685A68124B1B681B698A1A5A6038
:10174C0016E0BB69002B06D0FB69002B03D1BB69EB
:10175C007A691A610CE0BB697A691A617B69FA696A
:10176C001A61FB695A687B695B68D21AFB695A601B
:10177C00054B1B680133044A13602037BD4680BDFE
:10178C00300100203C0000203401002080B588B0DE
:10179C0000AFF860B9607A603B60324B1B68FB614C
:1017AC000023BB613B687A68B968F868FFF738FFBB
:1017BC007861FB69002B1AD12A4A7B6913602A4B8A
:1017CC001B680133284A136049E07B695A68FB693E
:1017DC005B689A420FD37B695A68FB695B68D21AC3
:1017EC007B695A60FB69BB61FB691B69FB61FB6927
:1017FC00002BEAD100E000BFBB69002B13D1194BC1
:10180C001A687B691A61174A7B691360154B1B6850
:10181C001B695968134B1B685A68124B1B681B6970
:10182C008A1A5A6016E0BB69002B06D0FB69002BA4
:10183C0003D1BB697A691A610CE0BB697A691A61D8
:10184C007B69FA691A61FB695A687B695B68D21A11
:10185C00FB695A60044B1B680133034A1360203741
:10186C00BD4680BD300100203401002080B483B01F
:10187C0000AF104B1B68002B16D00E4B1B687B6007
:10188C007B685B68002B05D07B685B685A1E7B68A5
:10189C005A600AE07B689A687B685A607B68DB68F0
:1018AC005A1C7B68DA6000E000BF0C37BD4680BC78
:1018BC00704700BF3001002080B586B000AF164BDA
:1018CC001B687B617B69002B22D07B69DB68002B5A
:1018DC001BD07B69DB685A1E7B69DA607B691B68ED
:1018EC003B617B695B68FB607B699B68BB607B6968
:1018FC00DB687B6000F012F87B68BA68F9683869BD
:10190C00FFF744FF7B691B68984700F02BF800E059
:10191C0000BF1837BD4680BD3001002080B582B0B5
:10192C0000AF0D4B1B687B607B68002B03D10B4B0E
:10193C0008221A700CE0084B1B681B69064A1360DE
:10194C00074B1B68013B064A1360786801F0BCFD2D
:10195C000837BD4680BD00BF30010020BC00002010
:10196C003401002080B400AF184B1A78184B1B7848
:10197C009A4216D0154B1B78C3F1FF02154BDA6057
:10198C00124B1A78124B1A70104B1B78002B04D088
:10199C00114B4EF660221A6013E00F4B00221A60B6
:1019AC000FE00D4B1B68002B0BD00B4B1B68013B46
:1019BC00094A1360084B1B68002B02D1034B002211
:1019CC001A7000BFBD4680BC704700BFBC00002031
:1019DC00C4000020000C0140C000002080B485B081
:1019EC0000AF154B9B69144A43F001039361124BF2
:1019FC009B6903F00103BB60BB680F4BDB690E4AAC
:101A0C0043F08053D3610C4BDB6903F080537B6054
:101A1C007B680A4B5B68FB60FB6823F0E063FB6050
:101A2C00FB6843F08063FB60044AFB68536000BFB3
:101A3C001437BD4680BC70470010024000000140C6
:101A4C0080B584B000AF78607B681B68B3F1804FC1
:101A5C0013D10C4BDB690B4A43F00103D361094BE7
:101A6C00DB6903F00103FB60FB68002200211C20F2
:101A7C0000F06DFB1C2000F086FB00BF1037BD464C
:101A8C0080BD00BF0010024080B400AF00BFFDE776
:101A9C0080B400AF00BFFDE780B400AF00BFFDE72E
:101AAC0080B400AF00BFFDE780B400AF00BFFDE71E
:101ABC0080B400AF00BFBD4680BC704780B400AF9F
:101ACC0000BFBD4680BC704780B400AF00BFBD46B0
:101ADC0080BC704780B500AF00F046FA00BF80BDF7
:101AEC0080B500AF024801F0A7F900BF80BD00BF70
:101AFC00E400002080B586B000AF7860144A154B26
:101B0C00D31A7B617B693B61134B1B68002B02D1A1
:101B1C00114B124A1A60104B1A687B6813443A69CD
:101B2C009A4207D201F09EFD03460C221A604FF038
:101B3C00FF3309E0084B1B68FB60074B1A687B6896
:101B4C001344054A1360FB6818461837BD4680BD20
:101B5C0000280020000400003801002008030020A9
:101B6C0080B400AF00BFBD4680BC704780B483B06A
:101B7C0000AF7860044A7B6852F8233018460C3763
:101B8C00BD4680BC704700BF6401002080B483B0A8
:101B9C0000AF7860044A7B68012142F8231000BF33
:101BAC000C37BD4680BC70473C01002080B483B02C
:101BBC0000AF7860044A7B68002142F8231000BF14
:101BCC000C37BD4680BC70473C01002080B483B00C
:101BDC0000AF78603960094B1B683A6892FBF3F2EE
:101BEC0007497B6841F82320064A7B68002142F8AC
:101BFC00231000BF0C37BD4680BC70473C00002052
:101C0C008C0100206401002080B483B000AF00235D
:101C1C007B601EE0134A7B6852F82330002B14D1F2
:101C2C00114A7B6852F823305A1E0F497B6841F8E1
:101C3C0023200D4A7B6852F82330002B06DC0B4A1C
:101C4C007B68012142F8231000E000BF7B68013360
:101C5C007B607B68092BDDDD00BF00BF0C37BD4608
:101C6C0080BC70473C0100208C01002064010020E6
:101C7C0080B500AF002208210F4800F032FC002292
:101C8C0010210D4800F02DFC002220210A4800F004
:101C9C0028FC00224021084800F023FC002280216F
:101CAC00054800F01EFC00224FF48071024800F041
:101CBC0018FC00BF80BD00BF000C014080B500AF18
:101CCC00012208210F4800F00CFC01224FF4807116
:101CDC000C4800F006FC002220210A4800F001FC10
:101CEC0000221021074800F0FCFB0022402105488F
:101CFC0000F0F7FB00228021024800F0F2FB00BF4D
:101D0C0080BD00BF000C014080B500AF00224FF435
:101D1C008071054800F0E5FB01228021024800F0AB
:101D2C00E0FB00BF80BD00BF000C014080B500AFE0
:101D3C0000220821094800F0D4FB0022802107482A
:101D4C0000F0CFFB01224021044800F0CAFB012225
:101D5C002021024800F0C5FB00BF80BD000C0140F3
:101D6C0080B500AF00222021074800F0BAFB012209
:101D7C001021054800F0B5FB01224021024800F07B
:101D8C00B0FB00BF80BD00BF000C014080B400AFB1
:101D9C00024B1B681846BD4680BC7047B80100203A
:101DAC0080B400AF034B00221A6000BFBD4680BC5C
:101DBC00704700BFB801002080B400AF034B012274
:101DCC001A6000BFBD4680BC704700BFB801002040
:101DDC0080B400AF2B4B1B68013B2A4A13602A4B83
:101DEC001B68013B284A1360264B1B68022B0AD147
:101DFC00254B1B68002B06D1234B02221A60234B68
:101E0C0001221A603AE01F4B1B68002B11D11E4BAC
:101E1C001B68002B0DD11D4B1B68012B09D1194BD5
:101E2C0003221A60184B05221A60184B02221A6002
:101E3C0024E0154B1B68022B0AD1124B1B68002B9C
:101E4C0006D1124B03221A600E4B02221A6015E0C7
:101E5C000C4B1B68002B11D10B4B1B68002B0DD1AD
:101E6C000A4B1B68032B09D1064B05221A60064B43
:101E7C0003221A60054B00221A6000BFBD4680BCCD
:101E8C00704700BF4000002044000020B401002037
:101E9C00FFF766FE0B480C490C4A002302E0D458AD
:101EAC00C4500433C4188C42F9D3094A094C00239A
:101EBC0001E013600432A242FBD301F0D9FBFFF71F
:101ECC0085FA704700000020A00000209C37000815
:101EDC00A000002008030020FEE7000080B500AF42
:101EEC00084B1B68074A43F010031360032000F0F3
:101EFC0023F90F2000F008F8FFF770FD00231846B7
:101F0C0080BD00BF0020024080B582B000AF786079
:101F1C00124B1A68124B1B7819464FF47A73B3FBA9
:101F2C00F1F3B2FBF3F3184600F03BF90346002B38
:101F3C0001D001230EE07B680F2B0AD800227968B0
:101F4C004FF0FF3000F003F9064A7B681360002362
:101F5C0000E0012318460837BD4680BD380000203C
:101F6C004C0000204800002080B400AF054B1B78CB
:101F7C001A46054B1B681344034A136000BFBD4649
:101F8C0080BC70474C000020BC01002080B400AF26
:101F9C00024B1B681846BD4680BC7047BC01002034
:101FAC0080B485B000AF78607B6803F00703FB60FA
:101FBC000C4BDB68BB60BA684FF6FF031340BB6089
:101FCC00FB681A02BB68134343F0BF6343F400334E
:101FDC00BB60044ABB68D36000BF1437BD4680BCED
:101FEC00704700BF00ED00E080B400AF044BDB682D
:101FFC001B0A03F007031846BD4680BC704700BFA0
:10200C0000ED00E080B483B000AF0346FB7197F99C
:10201C000730002B0BDBFB7903F01F02064997F905
:10202C0007305B09012000FA02F241F8232000BFBF
:10203C000C37BD4680BC704700E100E080B483B033
:10204C0000AF03463960FB7197F90730002B0ADBB0
:10205C003B68DAB20C4997F907301201D2B20B4443
:10206C0083F800230AE03B68DAB20849FB7903F0F5
:10207C000F03043B1201D2B20B441A7600BF0C378B
:10208C00BD4680BC704700BF00E100E000ED00E001
:10209C0080B489B000AFF860B9607A60FB6803F077
:1020AC000703FB61FB69C3F10703042B28BF04235F
:1020BC00BB61FB690433062B02D9FB69033B00E0CF
:1020CC0000237B614FF0FF32BB6902FA03F3DA4362
:1020DC00BB681A407B699A404FF0FF317B6901FA6B
:1020EC0003F3D9437B680B40134318462437BD4692
:1020FC0080BC704780B582B000AF78607B68013BD4
:10210C00B3F1807F01D301230FE00A4A7B68013BC6
:10211C0053600F214FF0FF30FFF790FF054B00226B
:10212C009A60044B07221A60002318460837BD46F4
:10213C0080BD00BF10E000E080B582B000AF7860D9
:10214C007868FFF72DFF00BF0837BD4680BD80B50E
:10215C0086B000AF0346B9607A60FB7300237B61E5
:10216C00FFF742FF78617A68B9687869FFF790FFEA
:10217C00024697F90F3011461846FFF75FFF00BF74
:10218C001837BD4680BD80B582B000AF0346FB71E9
:10219C0097F907301846FFF735FF00BF0837BD46E3
:1021AC0080BD80B582B000AF78607868FFF7A2FF81
:1021BC00034618460837BD4680BD000080B48BB07E
:1021CC0000AF7860396000237B6200233B6261E1E1
:1021DC0001227B6A02FA03F3FB613B681B68FA6914
:1021EC001340BB61BA69FB699A4240F050813B686D
:1021FC005B68974A93425ED0954A934275D8954A4C
:10220C00934258D0934A93426FD8934A934252D0F8
:10221C00914A934269D8914A93424CD08F4A934247
:10222C0063D88F4A934246D08D4A93425DD8122B85
:10223C002AD8122B59D801A252F823F0C322000835
:10224C009D220008AF220008F1220008F7220008A6
:10225C00F7220008F7220008F7220008F7220008EE
:10226C00F7220008F7220008F7220008F7220008DE
:10227C00F7220008F7220008F7220008F7220008CE
:10228C00A5220008B9220008764A934213D02CE00C
:10229C003B68DB683B6229E03B68DB6804333B62EC
:1022AC0024E03B68DB6808333B621FE03B68DB687B
:1022BC000C333B621AE03B689B68002B02D1042371
:1022CC003B6213E03B689B68012B05D108233B6202
:1022DC007B68FA691A6109E008233B627B68FA693A
:1022EC005A6103E000233B6200E000BFBB69FF2B97
:1022FC0001D87B6801E07B6804337B61BB69FF2BF1
:10230C0002D87B6A9B0002E07B6A083B9B003B6126
:10231C007B691A680F213B6901FA03F3DB431A400E
:10232C00396A3B6901FA03F31A437B691A603B680B
:10233C005B6803F08053002B00F0A9804A4B9B692B
:10234C00494A43F001039361474B9B6903F0010336
:10235C00BB60BB68454A7B6A9B08023352F823304A
:10236C00FB607B6A03F003039B000F2202FA03F36A
:10237C00DB43FA681340FB607B683D4A93420DD007
:10238C007B683C4A934207D07B683B4A934201D11D
:10239C00022304E0032302E0012300E000237A6A15
:1023AC0002F0030292009340FA681343FB602F493A
:1023BC007B6A9B080233FA6841F823203B685B6810
:1023CC0003F48013002B06D02C4B9A682B49BB6965
:1023DC0013438B6006E0294B9A68BB69DB432749A2
:1023EC0013408B603B685B6803F40013002B06D032
:1023FC00224BDA682149BB691343CB6006E01F4BC3
:10240C00DA68BB69DB431D491340CB603B685B68F2
:10241C0003F40033002B06D0184B5A681749BB69DC
:10242C0013434B6006E0154B5A68BB69DB431349F9
:10243C0013404B603B685B6803F48033002B1FD068
:10244C000E4B1A680D49BB6913430B601FE000BFAC
:10245C00000032100000311000002210000021108A
:10246C00000012100000111000100240000001408A
:10247C0000080140000C0140001001400004014024
:10248C000B4B1A68BB69DB43094913400B607B6A31
:10249C0001337B623B681A687B6A22FA03F3002BD8
:1024AC007FF496AE00BF00BF2C37BD4680BC704792
:1024BC000004014080B485B000AF78600B467B808F
:1024CC007B689A687B881340002B02D00123FB7336
:1024DC0001E00023FB73FB7B18461437BD4680BC20
:1024EC00704780B483B000AF78600B467B80134696
:1024FC007B707B78002B03D07A887B681A6103E0B1
:10250C007B881A047B681A6100BF0C37BD4680BCFF
:10251C00704780B485B000AF78600B467B807B68D9
:10252C00DB68FB607A88FB6813401A04FB68D943AC
:10253C007B880B401A437B681A6100BF1437BD4679
:10254C0080BC704780B586B000AF78607B68002B8C
:10255C0001D1012372E27B681B6803F00103002B9D
:10256C0000F08780924B5B6803F00C03042B0CD0BB
:10257C008F4B5B6803F00C03082B12D18C4B5B6800
:10258C0003F48033B3F5803F0BD1894B1B6803F404
:10259C000033002B6CD07B685B68002B68D1012367
:1025AC004CE27B685B68B3F5803F06D1804B1B68BF
:1025BC007F4A43F4803313602EE07B685B68002B0A
:1025CC000CD17B4B1B687A4A23F480331360784B15
:1025DC001B68774A23F4802313601DE07B685B68DB
:1025EC00B3F5A02F0CD1724B1B68714A43F48023B6
:1025FC0013606F4B1B686E4A43F4803313600BE01F
:10260C006B4B1B686A4A23F480331360684B1B685E
:10261C00674A23F4802313607B685B68002B13D01C
:10262C00FFF7B4FC386108E0FFF7B0FC02463B69E9
:10263C00D31A642B01D9032300E25D4B1B6803F40E
:10264C000033002BF0D014E0FFF7A0FC386108E059
:10265C00FFF79CFC02463B69D31A642B01D9032378
:10266C00ECE1534B1B6803F40033002BF0D100E07A
:10267C0000BF7B681B6803F00203002B63D04C4B3C
:10268C005B6803F00C03002B0BD0494B5B6803F029
:10269C000C03082B1CD1464B5B6803F48033002BD6
:1026AC0016D1434B1B6803F00203002B05D07B684B
:1026BC001B69012B01D00123C0E13D4B1B6823F0AA
:1026CC00F8027B685B69DB00394913430B603AE025
:1026DC007B681B69002B20D0364B01221A60FFF758
:1026EC0055FC386108E0FFF751FC02463B69D31AF0
:1026FC00022B01D90323A1E12D4B1B6803F002032C
:10270C00002BF0D02A4B1B6823F0F8027B685B6926
:10271C00DB00274913430B6015E0264B00221A609F
:10272C00FFF734FC386108E0FFF730FC02463B69E8
:10273C00D31A022B01D9032380E11D4B1B6803F034
:10274C000203002BF0D17B681B6803F00803002BFD
:10275C003AD07B689B69002B19D0174B01221A6069
:10276C00FFF714FC386108E0FFF710FC02463B69E8
:10277C00D31A022B01D9032360E10D4B5B6A03F0E2
:10278C000203002BF0D0012000F09CFA1CE00A4B55
:10279C0000221A60FFF7FAFB38610FE0FFF7F6FB37
:1027AC0002463B69D31A022B08D9032346E100BF2A
:1027BC00001002400000424280044242924B5B6A8D
:1027CC0003F00203002BE9D17B681B6803F00403C0
:1027DC00002B00F0A6800023FB758B4BDB6903F00C
:1027EC008053002B0DD1884BDB69874A43F0805313
:1027FC00D361854BDB6903F08053BB60BB6801235D
:10280C00FB75824B1B6803F48073002B18D17F4B34
:10281C001B687E4A43F480731360FFF7B7FB386183
:10282C0008E0FFF7B3FB02463B69D31A642B01D9CE
:10283C00032303E1754B1B6803F48073002BF0D06A
:10284C007B68DB68012B06D16F4B1B6A6E4A43F029
:10285C00010313622DE07B68DB68002B0CD16A4B03
:10286C001B6A694A23F001031362674B1B6A664AB1
:10287C0023F0040313621CE07B68DB68052B0CD18E
:10288C00614B1B6A604A43F0040313625E4B1B6A84
:10289C005D4A43F0010313620BE05B4B1B6A5A4A1F
:1028AC0023F001031362584B1B6A574A23F00403AD
:1028BC0013627B68DB68002B15D0FFF767FB386170
:1028CC000AE0FFF763FB02463B69D31A41F28832F8
:1028DC00934201D90323B1E04B4B1B6A03F0020373
:1028EC00002BEED014E0FFF751FB38610AE0FFF744
:1028FC004DFB02463B69D31A41F28832934201D90F
:10290C0003239BE0404B1B6A03F00203002BEED128
:10291C00FB7D012B05D13C4BDB693B4A23F08053FB
:10292C00D3617B68DB69002B00F08780364B5B68DA
:10293C0003F00C03082B61D07B68DB69022B46D1BA
:10294C00334B00221A60FFF721FB386108E0FFF7D8
:10295C001DFB02463B69D31A022B01D903236DE000
:10296C00294B1B6803F00073002BF0D17B681B6AAA
:10297C00B3F5803F08D1244B5B6823F400327B68AD
:10298C009B68214913434B601F4B5B6823F4741203
:10299C007B68196A7B685B6A0B431B4913434B606A
:1029AC001B4B01221A60FFF7F1FA386108E0FFF7C0
:1029BC00EDFA02463B69D31A022B01D903233DE001
:1029CC00114B1B6803F00073002BF0D035E0104B5B
:1029DC0000221A60FFF7DAFA386108E0FFF7D6FA3E
:1029EC0002463B69D31A022B01D9032326E0064B7E
:1029FC001B6803F00073002BF0D11EE07B68DB69D1
:102A0C00012B07D1012319E0001002400070004097
:102A1C00600042420B4B5B68FB60FB6803F4803246
:102A2C007B681B6A9A4206D1FB6803F470127B68C0
:102A3C005B6A9A4201D0012300E000231846183744
:102A4C00BD4680BD0010024080B584B000AF7860F8
:102A5C0039607B68002B01D10123D0E06A4B1B68E5
:102A6C0003F007033A689A4210D9674B1B6823F0AE
:102A7C00070265493B6813430B60634B1B6803F00B
:102A8C0007033A689A4201D00123B8E07B681B68BF
:102A9C0003F00203002B20D07B681B6803F00403B7
:102AAC00002B05D0594B5B68584A43F4E0635360E4
:102ABC007B681B6803F00803002B05D0534B5B6845
:102ACC00524A43F460535360504B5B6823F0F0025E
:102ADC007B689B684D4913434B607B681B6803F014
:102AEC000103002B40D07B685B68012B07D1474B5F
:102AFC001B6803F40033002B15D101237FE07B68A6
:102B0C005B68022B07D1414B1B6803F00073002B51
:102B1C0009D1012373E03D4B1B6803F00203002B2A
:102B2C0001D101236BE0394B5B6823F003027B6816
:102B3C005B68364913434B60FFF728FAF8600AE0EC
:102B4C00FFF724FA0246FB68D31A41F2883293420B
:102B5C0001D9032353E02D4B5B6803F00C027B6817
:102B6C005B689B009A42EBD1274B1B6803F0070371
:102B7C003A689A4210D2244B1B6823F00702224970
:102B8C003B6813430B60204B1B6803F007033A6848
:102B9C009A4201D0012332E07B681B6803F00403E6
:102BAC00002B08D0194B5B6823F4E0627B68DB6870
:102BBC00164913434B607B681B6803F00803002B1A
:102BCC0009D0124B5B6823F460527B681B69DB00F5
:102BDC000E4913434B6000F021F802460B4B5B6827
:102BEC001B0903F00F030A49CB5C22FA03F3094AD1
:102BFC001360094B1B681846FFF786F9002318462B
:102C0C001037BD4680BD00BF0020024000100240BE
:102C1C0070370008380000204800002080B487B0CE
:102C2C0000AF0023FB600023BB6000237B6100230B
:102C3C007B6000233B611E4B5B68FB60FB6803F011
:102C4C000C03042B02D0082B03D027E0194B3B615B
:102C5C0027E0FB689B0C03F00F03174AD35C7B60E7
:102C6C00FB6803F48033002B10D0114B5B685B0CBA
:102C7C0003F00103114AD35CBB607B680D4A03FB74
:102C8C0002F2BB68B2FBF3F37B6104E07B680C4A95
:102C9C0002FB03F37B617B693B6102E0054B3B610B
:102CAC0000BF3B6918461C37BD4680BC704700BF4F
:102CBC000010024000127A0080370008903700089C
:102CCC0000093D0080B485B000AF78600A4B1B68EA
:102CDC000A4AA2FB03235B0A7A6802FB03F3FB603C
:102CEC0000BFFB685A1EFA60002BF9D100BF00BF71
:102CFC001437BD4680BC704738000020D34D62109D
:102D0C0080B582B000AF78607B68002B01D10123C5
:102D1C0041E07B6893F83D30DBB2002B06D17B6839
:102D2C00002283F83C207868FEF78AFE7B6802223A
:102D3C0083F83D207B681A687B680433194610467B
:102D4C0000F056FA7B68012283F846207B6801224A
:102D5C0083F83E207B68012283F83F207B680122A8
:102D6C0083F840207B68012283F841207B68012294
:102D7C0083F842207B68012283F843207B68012280
:102D8C0083F844207B68012283F845207B6801226C
:102D9C0083F83D20002318460837BD4680BD00004F
:102DAC0080B485B000AF78607B6893F83D30DBB2BF
:102DBC00012B01D0012335E07B68022283F83D20F2
:102DCC007B681B68DA687B681B6842F00102DA607A
:102DDC007B681B68164A934209D07B681B68B3F169
:102DEC00804F04D07B681B68124A934211D17B68D8
:102DFC001B689B6803F00703FB60FB68062B10D075
:102E0C007B681B681A687B681B6842F001021A60B9
:102E1C0007E07B681B681A687B681B6842F001023C
:102E2C001A60002318461437BD4680BC704700BF9B
:102E3C00002C01400004004080B584B000AF7860E5
:102E4C007B681B68DB68FB607B681B681B69BB606D
:102E5C00BB6803F00203002B20D0FB6803F00203D5
:102E6C00002B1BD07B681B686FF002021A617B6819
:102E7C0001221A777B681B689B6903F00303002B04
:102E8C0003D0786800F098F905E0786800F08BF9C9
:102E9C00786800F09AF97B6800221A77BB6803F017
:102EAC000403002B20D0FB6803F00403002B1BD081
:102EBC007B681B686FF004021A617B6802221A7728
:102ECC007B681B689B6903F44073002B03D0786804
:102EDC0000F072F905E0786800F065F9786800F0A8
:102EEC0074F97B6800221A77BB6803F00803002B87
:102EFC0020D0FB6803F00803002B1BD07B681B68F9
:102F0C006FF008021A617B6804221A777B681B68D1
:102F1C00DB6903F00303002B03D0786800F04CF955
:102F2C0005E0786800F03FF9786800F04EF97B68AE
:102F3C0000221A77BB6803F01003002B20D0FB682B
:102F4C0003F01003002B1BD07B681B686FF0100282
:102F5C001A617B6808221A777B681B68DB6903F4AB
:102F6C004073002B03D0786800F026F905E07868F0
:102F7C0000F019F9786800F028F97B6800221A77BC
:102F8C00BB6803F00103002B0CD0FB6803F00103BA
:102F9C00002B07D07B681B686FF001021A61786800
:102FAC00FEF706FABB6803F08003002B0CD0FB681D
:102FBC0003F08003002B07D07B681B686FF0800246
:102FCC001A61786800F06FFABB6803F04003002BBD
:102FDC000CD0FB6803F04003002B07D07B681B6808
:102FEC006FF040021A61786800F0F8F8BB6803F0E3
:102FFC002003002B0CD0FB6803F02003002B07D020
:10300C007B681B686FF020021A61786800F042FA46
:10301C0000BF1037BD4680BD80B584B000AF78606E
:10302C0039600023FB737B6893F83C30012B01D192
:10303C000223B4E07B68012283F83C207B680222E7
:10304C0083F83D207B681B689B68BB60BB6823F0E2
:10305C007703BB60BB6823F47F43BB607B681B6852
:10306C00BA689A603B681B68B3F5005F3ED0B3F555
:10307C00005F00F28780B3F5805F00F08680B3F5C7
:10308C00805F7FD8702B1AD0702B7BD8602B50D0E0
:10309C00602B77D8502B3CD0502B73D8402B58D06A
:1030AC00402B6FD8302B64D0302B6BD8202B60D0BA
:1030BC00202B67D8002B5CD0102B5AD062E07B6899
:1030CC0018683B6899683B685A683B68DB6800F095
:1030DC006AF97B681B689B68BB60BB6843F077032D
:1030EC00BB607B681B68BA689A604FE07B681868A5
:1030FC003B6899683B685A683B68DB6800F053F999
:10310C007B681B689A687B681B6842F480429A60F3
:10311C003CE07B6818683B6859683B68DB681A467A
:10312C0000F0CAF87B681B685021184600F021F9A2
:10313C002CE07B6818683B6859683B68DB681A466A
:10314C0000F0E8F87B681B686021184600F011F964
:10315C001CE07B6818683B6859683B68DB681A465A
:10316C0000F0AAF87B681B684021184600F001F9B2
:10317C000CE07B681A683B681B681946104600F027
:10318C00F8F803E00123FB7300E000BF7B68012229
:10319C0083F83D207B68002283F83C20FB7B18469B
:1031AC001037BD4680BD80B483B000AF786000BFDF
:1031BC000C37BD4680BC704780B483B000AF7860DC
:1031CC0000BF0C37BD4680BC704780B483B000AFE5
:1031DC00786000BF0C37BD4680BC704780B483B0AC
:1031EC0000AF786000BF0C37BD4680BC7047000054
:1031FC0080B485B000AF786039607B681B68FB6079
:10320C007B682B4A934207D07B68B3F1804F03D085
:10321C007B68284A934208D1FB6823F07003FB605B
:10322C003B685B68FA681343FB607B68204A9342F7
:10323C0007D07B68B3F1804F03D07B681D4A934263
:10324C0008D1FB6823F44073FB603B68DB68FA68C9
:10325C001343FB60FB6823F080023B685B691343FC
:10326C00FB607B68FA681A603B689A687B68DA6274
:10327C003B681A687B689A627B680D4A934203D15B
:10328C003B681A697B681A637B6801225A617B6808
:10329C001B6903F00103002B05D07B681B6923F02D
:1032AC0001027B681A6100BF1437BD4680BC7047B1
:1032BC00002C01400004004080B487B000AFF860DF
:1032CC00B9607A60FB681B6A7B61FB681B6A23F040
:1032DC000102FB681A62FB689B693B613B6923F046
:1032EC00F0033B617B681B013A6913433B617B69CB
:1032FC0023F00A037B617A69BB6813437B61FB682B
:10330C003A699A61FB687A691A6200BF1C37BD463C
:10331C0080BC704780B487B000AFF860B9607A6049
:10332C00FB681B6A7B61FB681B6A23F01002FB685D
:10333C001A62FB689B693B613B6923F470433B61F8
:10334C007B681B033A6913433B617B6923F0A00341
:10335C007B61BB681B017A6913437B61FB683A692B
:10336C009A61FB687A691A6200BF1C37BD4680BC43
:10337C00704780B485B000AF786039607B689B681B
:10338C00FB60FB6823F07003FB603A68FB68134337
:10339C0043F00703FB607B68FA689A6000BF143740
:1033AC00BD4680BC704780B487B000AFF860B96090
:1033BC007A603B60FB689B687B617B6923F47F438D
:1033CC007B613B681A027B681A43BB6813437A69BA
:1033DC0013437B61FB687A699A6000BF1C37BD465A
:1033EC0080BC704780B485B000AF786039607B6872
:1033FC0093F83C30012B01D1022341E07B68012280
:10340C0083F83C207B68022283F83D207B681B6894
:10341C005B68FB607B681B689B68BB60FB6823F088
:10342C007003FB603B681B68FA681343FB607B68A6
:10343C001B68FA685A607B681B68144A934209D06F
:10344C007B681B68B3F1804F04D07B681B68104A03
:10345C0093420CD1BB6823F08003BB603B685B6874
:10346C00BA681343BB607B681B68BA689A607B6858
:10347C00012283F83D207B68002283F83C20002346
:10348C0018461437BD4680BC704700BF002C014065
:10349C000004004080B483B000AF786000BF0C37EC
:1034AC00BD4680BC704780B483B000AF786000BF6D
:1034BC000C37BD4680BC7047024B0146186800F0C3
:1034CC002DB800BF50000020024B0146186800F0D8
:1034DC00F5B800BF5000002070B50F4E0C46316897
:1034EC00054611B900F0AEF830602146284600F0D0
:1034FC00A9F8431C03D14FF0FF34204670BDC41C07
:10350C0024F00304A042F8D0211A284600F09AF8BF
:10351C000130F2D1EFE700BFC00100202DE9F843E4
:10352C00CD1C25F0030508350C2D38BF0C25002DBE
:10353C00064601DBA94204D90C2333600020BDE808
:10354C00F883DFF8D48000F069F8D8F800301C4616
:10355C0044BB29463046FFF7BFFF431C044658D1F5
:10356C00D8F800402746002F43D1002C4BD02368BD
:10357C003946304604EB030900F064F8814542D12A
:10358C00216830466D1A2946FFF7A6FF01303AD064
:10359C0023682B442360D8F800305A6862BBC8F803
:1035AC0000700FE02268521B20D40B2A17D9611926
:1035BC00A342256018BF5960636808BFC8F80010A3
:1035CC0062514B60304600F02FF804F10B00231DC4
:1035DC0020F00700C21A1CBF1B1AA350AFE7626889
:1035EC00A3420CBFC8F800205A60EBE7234664687E
:1035FC00AEE73C467F68B6E71A465B68A342FBD150
:10360C0000235360DEE70C233046336000F00CF8E7
:10361C0094E70560D6E700BFC4010020014800F024
:10362C004BB800BF04030020014800F046B800BFAF
:10363C000403002003460244934200D1704703F870
:10364C00011BF9E738B50023054D044608462B60ED
:10365C00FEF750FA431C02D12B6803B1236038BD2E
:10366C0000030020014B1868704700BF5000002079
:10367C0070B500260C4D0D4C641BA410A64209D14C
:10368C0000F064F800260A4D0A4C641BA410A642F4
:10369C0005D170BD55F8043B98470136EEE755F857
:1036AC00043B98470136F2E794370008943700083A
:1036BC0094370008983700087047704738B50546AE
:1036CC00002940D051F8043C0C1F002BB8BFE41863
:1036DC00FFF7A4FF1C4A136833B9636014602846D3
:1036EC00BDE83840FFF7A0BFA34208D920682118D5
:1036FC008B4201BF19685B6809182160EDE71A4617
:10370C005B680BB1A342FAD911685018A0420BD1D7
:10371C0020680144501883421160E0D118685B683E
:10372C00084410605360DAE702D90C232B60D6E70B
:10373C00206821188B4201BF19685B680918216049
:10374C0063605460CBE738BDC4010020F8B500BFFE
:10375C00F8BC08BC9E467047F8B500BFF8BC08BC66
:04376C009E467047BE
:103770000000000000000000010203040607080921
:1037800002030405060708090A0B0C0D0E0F1010A2
:043790000102000032
:0437940031010008F7
:043798000D01000817
:10379C000100000001000000010000000100000019
:1037AC000100000001000000010000000100000009
:1037BC0001000000010000000500000000000000F6
:1037CC00000000000300000000127A000A00000054
:1037DC0005000000030000001000000001000000C4
:1037EC005400002000000000C8010020300200201E
:1037FC009802002000000000000000000000000003
:10380C0000000000000000000000000000000000AC
:10381C00000000000000000000000000000000009C
:10382C00000000000000000000000000000000008C
:0400000508001E9D34
:00000001FF
